{
  "contractName": "Notes",
  "abi": [
    {
      "inputs": [
        {
          "internalType": "string",
          "name": "_content",
          "type": "string"
        }
      ],
      "name": "addNote",
      "outputs": [],
      "stateMutability": "nonpayable",
      "type": "function"
    },
    {
      "inputs": [],
      "name": "getNotesCount",
      "outputs": [
        {
          "internalType": "uint256",
          "name": "",
          "type": "uint256"
        }
      ],
      "stateMutability": "view",
      "type": "function",
      "constant": true
    },
    {
      "inputs": [
        {
          "internalType": "uint256",
          "name": "_index",
          "type": "uint256"
        }
      ],
      "name": "getNoteByIndex",
      "outputs": [
        {
          "internalType": "string",
          "name": "content",
          "type": "string"
        },
        {
          "internalType": "uint256",
          "name": "timestamp",
          "type": "uint256"
        }
      ],
      "stateMutability": "view",
      "type": "function",
      "constant": true
    }
  ],
  "bytecode": "0x608060405234801561001057600080fd5b506106ad806100206000396000f3fe608060405234801561001057600080fd5b50600436106100415760003560e01c80634c21fa45146100465780638596982d14610077578063a4edff4714610095575b600080fd5b610060600480360381019061005b91906103da565b6100b1565b60405161006e92919061048b565b60405180910390f35b61007f610201565b60405161008c91906104db565b60405180910390f35b6100af60048036038101906100aa9190610399565b61020d565b005b60606000808054905083106100fb576040517f08c379a00000000000000000000000000000000000000000000000000000000081526004016100f2906104bb565b60405180910390fd5b6000808481548110610136577f4e487b7100000000000000000000000000000000000000000000000000000000600052603260045260246000fd5b906000526020600020906002020160405180604001604052908160008201805461015f906105bf565b80601f016020809104026020016040519081016040528092919081815260200182805461018b906105bf565b80156101d85780601f106101ad576101008083540402835291602001916101d8565b820191906000526020600020905b8154815290600101906020018083116101bb57829003601f168201915b505050505081526020016001820154815250509050806000015181602001519250925050915091565b60008080549050905090565b600060405180604001604052808381526020014281525090806001815401808255809150506001900390600052602060002090600202016000909190919091506000820151816000019080519060200190610269929190610279565b5060208201518160010155505050565b828054610285906105bf565b90600052602060002090601f0160209004810192826102a757600085556102ee565b82601f106102c057805160ff19168380011785556102ee565b828001600101855582156102ee579182015b828111156102ed5782518255916020019190600101906102d2565b5b5090506102fb91906102ff565b5090565b5b80821115610318576000816000905550600101610300565b5090565b600061032f61032a84610527565b6104f6565b90508281526020810184848401111561034757600080fd5b61035284828561057d565b509392505050565b600082601f83011261036b57600080fd5b813561037b84826020860161031c565b91505092915050565b60008135905061039381610660565b92915050565b6000602082840312156103ab57600080fd5b600082013567ffffffffffffffff8111156103c557600080fd5b6103d18482850161035a565b91505092915050565b6000602082840312156103ec57600080fd5b60006103fa84828501610384565b91505092915050565b600061040e82610557565b6104188185610562565b935061042881856020860161058c565b6104318161064f565b840191505092915050565b6000610449601383610562565b91507f496e646578206f7574206f6620626f756e6473000000000000000000000000006000830152602082019050919050565b61048581610573565b82525050565b600060408201905081810360008301526104a58185610403565b90506104b4602083018461047c565b9392505050565b600060208201905081810360008301526104d48161043c565b9050919050565b60006020820190506104f0600083018461047c565b92915050565b6000604051905081810181811067ffffffffffffffff8211171561051d5761051c610620565b5b8060405250919050565b600067ffffffffffffffff82111561054257610541610620565b5b601f19601f8301169050602081019050919050565b600081519050919050565b600082825260208201905092915050565b6000819050919050565b82818337600083830152505050565b60005b838110156105aa57808201518184015260208101905061058f565b838111156105b9576000848401525b50505050565b600060028204905060018216806105d757607f821691505b602082108114156105eb576105ea6105f1565b5b50919050565b7f4e487b7100000000000000000000000000000000000000000000000000000000600052602260045260246000fd5b7f4e487b7100000000000000000000000000000000000000000000000000000000600052604160045260246000fd5b6000601f19601f8301169050919050565b61066981610573565b811461067457600080fd5b5056fea2646970667358221220959a42f6ef698f7c3ee301ec571ad1d2d099a972683a19fac98597bd3e18faa664736f6c63430008000033",
  "immutableReferences": {},
  "source": "// SPDX-License-Identifier: MIT\r\npragma solidity ^0.8.0;\r\n\r\ncontract Notes {\r\n    struct Note {\r\n        string content;\r\n        uint256 timestamp;\r\n    }\r\n\r\n    Note[] private notes;\r\n\r\n    // Function to add a note\r\n    function addNote(string memory _content) public {\r\n        notes.push(Note({\r\n            content: _content,\r\n            timestamp: block.timestamp\r\n        }));\r\n    }\r\n\r\n    // Function to get the count of notes\r\n    function getNotesCount() public view returns (uint256) {\r\n        return notes.length;\r\n    }\r\n\r\n    // Function to retrieve a specific note by index\r\n    function getNoteByIndex(uint256 _index) public view returns (string memory content, uint256 timestamp) {\r\n        require(_index < notes.length, \"Index out of bounds\");\r\n        Note memory note = notes[_index];\r\n        return (note.content, note.timestamp);\r\n    }\r\n}\r\n",
  "sourcePath": "C:\\Users\\serin\\Documents\\SEM7\\BC\\Project\\Time Stamped Note app - Copy\\contracts\\Notes.sol",
  "compiler": {
    "name": "solc",
    "version": "0.8.0+commit.c7dfd78e.Emscripten.clang"
  },
  "schemaVersion": "3.4.16",
  "updatedAt": "2024-10-16T06:52:54.141Z",
  "networkType": "ethereum",
  "devdoc": {
    "kind": "dev",
    "methods": {},
    "version": 1
  },
  "userdoc": {
    "kind": "user",
    "methods": {},
    "version": 1
  }
}