{
  "contractName": "TimeStampedNotes",
  "abi": [
    {
      "inputs": [
        {
          "internalType": "uint256",
          "name": "",
          "type": "uint256"
        }
      ],
      "name": "notes",
      "outputs": [
        {
          "internalType": "string",
          "name": "content",
          "type": "string"
        },
        {
          "internalType": "uint256",
          "name": "timestamp",
          "type": "uint256"
        }
      ],
      "stateMutability": "view",
      "type": "function"
    },
    {
      "inputs": [
        {
          "internalType": "string",
          "name": "_content",
          "type": "string"
        }
      ],
      "name": "addNote",
      "outputs": [],
      "stateMutability": "nonpayable",
      "type": "function"
    },
    {
      "inputs": [],
      "name": "getNotesCount",
      "outputs": [
        {
          "internalType": "uint256",
          "name": "",
          "type": "uint256"
        }
      ],
      "stateMutability": "view",
      "type": "function"
    },
    {
      "inputs": [
        {
          "internalType": "uint256",
          "name": "_index",
          "type": "uint256"
        }
      ],
      "name": "getNoteByIndex",
      "outputs": [
        {
          "internalType": "string",
          "name": "",
          "type": "string"
        },
        {
          "internalType": "uint256",
          "name": "",
          "type": "uint256"
        }
      ],
      "stateMutability": "view",
      "type": "function"
    }
  ],
  "bytecode": "0x608060405234801561001057600080fd5b506107cb806100206000396000f3fe608060405234801561001057600080fd5b506004361061004c5760003560e01c80634c21fa451461005157806361c3a7e6146100825780638596982d146100b3578063a4edff47146100d1575b600080fd5b61006b600480360381019061006691906104f8565b6100ed565b6040516100799291906105a9565b60405180910390f35b61009c600480360381019061009791906104f8565b610263565b6040516100aa9291906105a9565b60405180910390f35b6100bb61031f565b6040516100c891906105f9565b60405180910390f35b6100eb60048036038101906100e691906104b7565b61032b565b005b6060600080805490508310610137576040517f08c379a000000000000000000000000000000000000000000000000000000000815260040161012e906105d9565b60405180910390fd5b60008381548110610171577f4e487b7100000000000000000000000000000000000000000000000000000000600052603260045260246000fd5b9060005260206000209060020201600001600084815481106101bc577f4e487b7100000000000000000000000000000000000000000000000000000000600052603260045260246000fd5b9060005260206000209060020201600101548180546101da906106dd565b80601f0160208091040260200160405190810160405280929190818152602001828054610206906106dd565b80156102535780601f1061022857610100808354040283529160200191610253565b820191906000526020600020905b81548152906001019060200180831161023657829003601f168201915b5050505050915091509150915091565b6000818154811061027357600080fd5b9060005260206000209060020201600091509050806000018054610296906106dd565b80601f01602080910402602001604051908101604052809291908181526020018280546102c2906106dd565b801561030f5780601f106102e45761010080835404028352916020019161030f565b820191906000526020600020905b8154815290600101906020018083116102f257829003601f168201915b5050505050908060010154905082565b60008080549050905090565b600060405180604001604052808381526020014281525090806001815401808255809150506001900390600052602060002090600202016000909190919091506000820151816000019080519060200190610387929190610397565b5060208201518160010155505050565b8280546103a3906106dd565b90600052602060002090601f0160209004810192826103c5576000855561040c565b82601f106103de57805160ff191683800117855561040c565b8280016001018555821561040c579182015b8281111561040b5782518255916020019190600101906103f0565b5b509050610419919061041d565b5090565b5b8082111561043657600081600090555060010161041e565b5090565b600061044d61044884610645565b610614565b90508281526020810184848401111561046557600080fd5b61047084828561069b565b509392505050565b600082601f83011261048957600080fd5b813561049984826020860161043a565b91505092915050565b6000813590506104b18161077e565b92915050565b6000602082840312156104c957600080fd5b600082013567ffffffffffffffff8111156104e357600080fd5b6104ef84828501610478565b91505092915050565b60006020828403121561050a57600080fd5b6000610518848285016104a2565b91505092915050565b600061052c82610675565b6105368185610680565b93506105468185602086016106aa565b61054f8161076d565b840191505092915050565b6000610567601883610680565b91507f4e6f746520696e646578206f7574206f6620626f756e647300000000000000006000830152602082019050919050565b6105a381610691565b82525050565b600060408201905081810360008301526105c38185610521565b90506105d2602083018461059a565b9392505050565b600060208201905081810360008301526105f28161055a565b9050919050565b600060208201905061060e600083018461059a565b92915050565b6000604051905081810181811067ffffffffffffffff8211171561063b5761063a61073e565b5b8060405250919050565b600067ffffffffffffffff8211156106605761065f61073e565b5b601f19601f8301169050602081019050919050565b600081519050919050565b600082825260208201905092915050565b6000819050919050565b82818337600083830152505050565b60005b838110156106c85780820151818401526020810190506106ad565b838111156106d7576000848401525b50505050565b600060028204905060018216806106f557607f821691505b602082108114156107095761070861070f565b5b50919050565b7f4e487b7100000000000000000000000000000000000000000000000000000000600052602260045260246000fd5b7f4e487b7100000000000000000000000000000000000000000000000000000000600052604160045260246000fd5b6000601f19601f8301169050919050565b61078781610691565b811461079257600080fd5b5056fea26469706673582212205ee4422cdcf083bad13e5be6d2e6bad2a80587b25bdd7c3664c7346f8b1786e664736f6c63430008000033",
  "immutableReferences": {},
  "source": "// SPDX-License-Identifier: MIT\r\npragma solidity ^0.8.0;\r\n\r\ncontract TimeStampedNotes {\r\n\r\n    struct Note {\r\n        string content;\r\n        uint256 timestamp;\r\n    }\r\n\r\n    Note[] public notes;\r\n\r\n    // Add a note to the blockchain\r\n    function addNote(string memory _content) public {\r\n        notes.push(Note({\r\n            content: _content,\r\n            timestamp: block.timestamp\r\n        }));\r\n    }\r\n\r\n    // Get the count of notes\r\n    function getNotesCount() public view returns (uint256) {\r\n        return notes.length;\r\n    }\r\n\r\n    // Get a note by its index (with a static return for debugging)\r\n    function getNoteByIndex(uint256 _index) public view returns (string memory, uint256) {\r\n        require(_index < notes.length, \"Note index out of bounds\");\r\n        // Temporary debug value\r\n        return (notes[_index].content, notes[_index].timestamp);\r\n    }\r\n}\r\n",
  "sourcePath": "C:\\Users\\serin\\Documents\\SEM7\\BC\\Project\\Time Stamped Note app - Copy\\contracts\\Notes.sol",
  "compiler": {
    "name": "solc",
    "version": "0.8.0+commit.c7dfd78e.Emscripten.clang"
  },
  "schemaVersion": "3.4.16",
  "updatedAt": "2024-10-16T06:52:48.998Z",
  "devdoc": {
    "kind": "dev",
    "methods": {},
    "version": 1
  },
  "userdoc": {
    "kind": "user",
    "methods": {},
    "version": 1
  }
}